{
  "address": "0xC8F797e47200A5D40a72846225aE4a8cb6F813C1",
  "abi": [
    {
      "inputs": [
        {
          "internalType": "address",
          "name": "_nativeOFT",
          "type": "address"
        },
        {
          "internalType": "address",
          "name": "_stargatePool",
          "type": "address"
        },
        {
          "internalType": "address",
          "name": "_executor",
          "type": "address"
        }
      ],
      "stateMutability": "nonpayable",
      "type": "constructor"
    },
    {
      "inputs": [
        {
          "internalType": "uint256",
          "name": "required",
          "type": "uint256"
        },
        {
          "internalType": "uint256",
          "name": "available",
          "type": "uint256"
        }
      ],
      "name": "InsufficientValue",
      "type": "error"
    },
    {
      "inputs": [],
      "name": "InvalidExecutor",
      "type": "error"
    },
    {
      "inputs": [],
      "name": "InvalidNativeOFT",
      "type": "error"
    },
    {
      "inputs": [
        {
          "components": [
            {
              "internalType": "uint32",
              "name": "dstEid",
              "type": "uint32"
            },
            {
              "internalType": "bytes32",
              "name": "to",
              "type": "bytes32"
            },
            {
              "internalType": "uint256",
              "name": "amountLD",
              "type": "uint256"
            },
            {
              "internalType": "uint256",
              "name": "minAmountLD",
              "type": "uint256"
            },
            {
              "internalType": "bytes",
              "name": "extraOptions",
              "type": "bytes"
            },
            {
              "internalType": "bytes",
              "name": "composeMsg",
              "type": "bytes"
            },
            {
              "internalType": "bytes",
              "name": "oftCmd",
              "type": "bytes"
            }
          ],
          "internalType": "struct SendParam",
          "name": "sendParam",
          "type": "tuple"
        }
      ],
      "name": "InvalidSendParam",
      "type": "error"
    },
    {
      "inputs": [],
      "name": "InvalidStargatePool",
      "type": "error"
    },
    {
      "inputs": [
        {
          "internalType": "address",
          "name": "caller",
          "type": "address"
        }
      ],
      "name": "OnlyEndpoint",
      "type": "error"
    },
    {
      "inputs": [
        {
          "internalType": "address",
          "name": "unexpected",
          "type": "address"
        }
      ],
      "name": "OnlyOFT",
      "type": "error"
    },
    {
      "inputs": [
        {
          "internalType": "address",
          "name": "caller",
          "type": "address"
        }
      ],
      "name": "OnlySelf",
      "type": "error"
    },
    {
      "inputs": [],
      "name": "ReentrancyGuardReentrantCall",
      "type": "error"
    },
    {
      "anonymous": false,
      "inputs": [
        {
          "indexed": false,
          "internalType": "bytes32",
          "name": "guid",
          "type": "bytes32"
        },
        {
          "indexed": false,
          "internalType": "address",
          "name": "targetOFT",
          "type": "address"
        },
        {
          "indexed": false,
          "internalType": "bytes",
          "name": "encodedSendParam",
          "type": "bytes"
        }
      ],
      "name": "DecodeFailed",
      "type": "event"
    },
    {
      "anonymous": false,
      "inputs": [
        {
          "indexed": false,
          "internalType": "bytes32",
          "name": "guid",
          "type": "bytes32"
        },
        {
          "indexed": false,
          "internalType": "address",
          "name": "refundOFT",
          "type": "address"
        }
      ],
      "name": "Refunded",
      "type": "event"
    },
    {
      "anonymous": false,
      "inputs": [
        {
          "indexed": false,
          "internalType": "bytes32",
          "name": "guid",
          "type": "bytes32"
        },
        {
          "indexed": false,
          "internalType": "address",
          "name": "targetOFT",
          "type": "address"
        }
      ],
      "name": "Retried",
      "type": "event"
    },
    {
      "anonymous": false,
      "inputs": [
        {
          "indexed": false,
          "internalType": "bytes32",
          "name": "guid",
          "type": "bytes32"
        },
        {
          "indexed": false,
          "internalType": "address",
          "name": "targetOFT",
          "type": "address"
        }
      ],
      "name": "SendFailed",
      "type": "event"
    },
    {
      "anonymous": false,
      "inputs": [
        {
          "indexed": false,
          "internalType": "bytes32",
          "name": "guid",
          "type": "bytes32"
        },
        {
          "indexed": false,
          "internalType": "address",
          "name": "targetOFT",
          "type": "address"
        }
      ],
      "name": "Sent",
      "type": "event"
    },
    {
      "inputs": [],
      "name": "ENDPOINT",
      "outputs": [
        {
          "internalType": "address",
          "name": "",
          "type": "address"
        }
      ],
      "stateMutability": "view",
      "type": "function"
    },
    {
      "inputs": [],
      "name": "EXECUTOR",
      "outputs": [
        {
          "internalType": "address",
          "name": "",
          "type": "address"
        }
      ],
      "stateMutability": "view",
      "type": "function"
    },
    {
      "inputs": [],
      "name": "NATIVE_OFT",
      "outputs": [
        {
          "internalType": "address",
          "name": "",
          "type": "address"
        }
      ],
      "stateMutability": "view",
      "type": "function"
    },
    {
      "inputs": [],
      "name": "STARGATE_POOL",
      "outputs": [
        {
          "internalType": "address",
          "name": "",
          "type": "address"
        }
      ],
      "stateMutability": "view",
      "type": "function"
    },
    {
      "inputs": [
        {
          "internalType": "bytes",
          "name": "sendParamBytes",
          "type": "bytes"
        }
      ],
      "name": "decodeSendParam",
      "outputs": [
        {
          "components": [
            {
              "internalType": "uint32",
              "name": "dstEid",
              "type": "uint32"
            },
            {
              "internalType": "bytes32",
              "name": "to",
              "type": "bytes32"
            },
            {
              "internalType": "uint256",
              "name": "amountLD",
              "type": "uint256"
            },
            {
              "internalType": "uint256",
              "name": "minAmountLD",
              "type": "uint256"
            },
            {
              "internalType": "bytes",
              "name": "extraOptions",
              "type": "bytes"
            },
            {
              "internalType": "bytes",
              "name": "composeMsg",
              "type": "bytes"
            },
            {
              "internalType": "bytes",
              "name": "oftCmd",
              "type": "bytes"
            }
          ],
          "internalType": "struct SendParam",
          "name": "sendParam",
          "type": "tuple"
        }
      ],
      "stateMutability": "pure",
      "type": "function"
    },
    {
      "inputs": [
        {
          "internalType": "bytes32",
          "name": "guid",
          "type": "bytes32"
        }
      ],
      "name": "failedMessages",
      "outputs": [
        {
          "internalType": "address",
          "name": "oft",
          "type": "address"
        },
        {
          "components": [
            {
              "internalType": "uint32",
              "name": "dstEid",
              "type": "uint32"
            },
            {
              "internalType": "bytes32",
              "name": "to",
              "type": "bytes32"
            },
            {
              "internalType": "uint256",
              "name": "amountLD",
              "type": "uint256"
            },
            {
              "internalType": "uint256",
              "name": "minAmountLD",
              "type": "uint256"
            },
            {
              "internalType": "bytes",
              "name": "extraOptions",
              "type": "bytes"
            },
            {
              "internalType": "bytes",
              "name": "composeMsg",
              "type": "bytes"
            },
            {
              "internalType": "bytes",
              "name": "oftCmd",
              "type": "bytes"
            }
          ],
          "internalType": "struct SendParam",
          "name": "sendParam",
          "type": "tuple"
        },
        {
          "internalType": "address",
          "name": "refundOFT",
          "type": "address"
        },
        {
          "components": [
            {
              "internalType": "uint32",
              "name": "dstEid",
              "type": "uint32"
            },
            {
              "internalType": "bytes32",
              "name": "to",
              "type": "bytes32"
            },
            {
              "internalType": "uint256",
              "name": "amountLD",
              "type": "uint256"
            },
            {
              "internalType": "uint256",
              "name": "minAmountLD",
              "type": "uint256"
            },
            {
              "internalType": "bytes",
              "name": "extraOptions",
              "type": "bytes"
            },
            {
              "internalType": "bytes",
              "name": "composeMsg",
              "type": "bytes"
            },
            {
              "internalType": "bytes",
              "name": "oftCmd",
              "type": "bytes"
            }
          ],
          "internalType": "struct SendParam",
          "name": "refundSendParam",
          "type": "tuple"
        },
        {
          "internalType": "uint256",
          "name": "msgValue",
          "type": "uint256"
        }
      ],
      "stateMutability": "view",
      "type": "function"
    },
    {
      "inputs": [
        {
          "internalType": "address",
          "name": "_refundOFT",
          "type": "address"
        },
        {
          "internalType": "bytes32",
          "name": "_guid",
          "type": "bytes32"
        },
        {
          "internalType": "bytes",
          "name": "_message",
          "type": "bytes"
        },
        {
          "internalType": "address",
          "name": "",
          "type": "address"
        },
        {
          "internalType": "bytes",
          "name": "",
          "type": "bytes"
        }
      ],
      "name": "lzCompose",
      "outputs": [],
      "stateMutability": "payable",
      "type": "function"
    },
    {
      "inputs": [
        {
          "internalType": "bytes32",
          "name": "_guid",
          "type": "bytes32"
        }
      ],
      "name": "refund",
      "outputs": [],
      "stateMutability": "payable",
      "type": "function"
    },
    {
      "inputs": [
        {
          "internalType": "bytes32",
          "name": "_guid",
          "type": "bytes32"
        }
      ],
      "name": "retry",
      "outputs": [],
      "stateMutability": "payable",
      "type": "function"
    },
    {
      "inputs": [
        {
          "internalType": "address",
          "name": "_oft",
          "type": "address"
        },
        {
          "components": [
            {
              "internalType": "uint32",
              "name": "dstEid",
              "type": "uint32"
            },
            {
              "internalType": "bytes32",
              "name": "to",
              "type": "bytes32"
            },
            {
              "internalType": "uint256",
              "name": "amountLD",
              "type": "uint256"
            },
            {
              "internalType": "uint256",
              "name": "minAmountLD",
              "type": "uint256"
            },
            {
              "internalType": "bytes",
              "name": "extraOptions",
              "type": "bytes"
            },
            {
              "internalType": "bytes",
              "name": "composeMsg",
              "type": "bytes"
            },
            {
              "internalType": "bytes",
              "name": "oftCmd",
              "type": "bytes"
            }
          ],
          "internalType": "struct SendParam",
          "name": "_sendParam",
          "type": "tuple"
        }
      ],
      "name": "send",
      "outputs": [],
      "stateMutability": "payable",
      "type": "function"
    },
    {
      "stateMutability": "payable",
      "type": "receive"
    }
  ],
  "transactionHash": "0x061db08f61fbd6f0e71d74e79cdf8a7c76d3e3cb43f653799fdcf9fde43af42f",
  "args": [
    "0x9B4521d4f2EE0854Dca1DD5D1aAeaAcB3fFE79f9",
    "0x6fddB6270F6c71f31B62AE0260cfa8E2e2d186E0",
    "0xEDAD811731F2Af46d5A7559327aF92C4f296762C"
  ],
  "numDeployments": 1,
  "solcInputHash": "3e599e597e63366ebf7992d238061128",
  "bytecode": "0x6101006040523480156200001257600080fd5b5060405162002a0638038062002a0683398101604081905262000035916200031f565b60016000556001600160a01b03831662000062576040516382b6521d60e01b815260040160405180910390fd5b6001600160a01b0382166200008a5760405163de3d2dc160e01b815260040160405180910390fd5b6001600160a01b038116620000b25760405163710c949760e01b815260040160405180910390fd5b6001600160a01b03808416608081905283821660a05290821660e05260408051635e280f1160e01b81529051635e280f11916004808201926020929091908290030181865afa1580156200010a573d6000803e3d6000fd5b505050506040513d601f19601f8201168201806040525081019062000130919062000373565b6001600160a01b031660c0816001600160a01b031681525050826001600160a01b0316639f68b9646040518163ffffffff1660e01b8152600401602060405180830381865afa15801562000188573d6000803e3d6000fd5b505050506040513d601f19601f82011682018060405250810190620001ae91906200039a565b15620001cd576040516382b6521d60e01b815260040160405180910390fd5b60006001600160a01b0316836001600160a01b031663fc0c546a6040518163ffffffff1660e01b8152600401602060405180830381865afa15801562000217573d6000803e3d6000fd5b505050506040513d601f19601f820116820180604052508101906200023d919062000373565b6001600160a01b03161462000265576040516382b6521d60e01b815260040160405180910390fd5b60006001600160a01b0316826001600160a01b031663fc0c546a6040518163ffffffff1660e01b8152600401602060405180830381865afa158015620002af573d6000803e3d6000fd5b505050506040513d601f19601f82011682018060405250810190620002d5919062000373565b6001600160a01b031614620002fd5760405163de3d2dc160e01b815260040160405180910390fd5b505050620003be565b6001600160a01b03811681146200031c57600080fd5b50565b6000806000606084860312156200033557600080fd5b8351620003428162000306565b6020850151909350620003558162000306565b6040850151909250620003688162000306565b809150509250925092565b6000602082840312156200038657600080fd5b8151620003938162000306565b9392505050565b600060208284031215620003ad57600080fd5b815180151581146200039357600080fd5b60805160a05160c05160e0516125de620004286000396000818160e901526107d00152600081816101350152611272015260008181610191015281816112f101526113b2015260008181610209015281816112b401528181611353015261138c01526125de6000f3fe6080604052600436106100955760003560e01c80637ee430ad116100595780637ee430ad1461017f5780638871e021146101b3578063a4e7f8bd146101c6578063a8051d6a146101f7578063d0a102601461022b57600080fd5b80630837ef0b146100a1578063630dc7cb146100d75780636fad06f5146101235780637249fbb614610157578063749075ff1461016c57600080fd5b3661009c57005b600080fd5b3480156100ad57600080fd5b506100c16100bc366004611c39565b61023e565b6040516100ce9190611d49565b60405180910390f35b3480156100e357600080fd5b5061010b7f000000000000000000000000000000000000000000000000000000000000000081565b6040516001600160a01b0390911681526020016100ce565b34801561012f57600080fd5b5061010b7f000000000000000000000000000000000000000000000000000000000000000081565b61016a610165366004611d5c565b610259565b005b61016a61017a366004611f5b565b610849565b34801561018b57600080fd5b5061010b7f000000000000000000000000000000000000000000000000000000000000000081565b61016a6101c1366004611d5c565b61088d565b3480156101d257600080fd5b506101e66101e1366004611d5c565b610e3d565b6040516100ce959493929190611fa8565b34801561020357600080fd5b5061010b7f000000000000000000000000000000000000000000000000000000000000000081565b61016a610239366004611ff8565b611267565b610246611b5d565b61025282840184612095565b9392505050565b610261611956565b6000818152600160208181526040808420815160a08101835281546001600160a01b03168152825160e081018452948201805463ffffffff1686526002830154868601526003830154938601939093526004820154606086015260058201805491959294860193916080840191906102d8906120d1565b80601f0160208091040260200160405190810160405280929190818152602001828054610304906120d1565b80156103515780601f1061032657610100808354040283529160200191610351565b820191906000526020600020905b81548152906001019060200180831161033457829003601f168201915b5050505050815260200160058201805461036a906120d1565b80601f0160208091040260200160405190810160405280929190818152602001828054610396906120d1565b80156103e35780601f106103b8576101008083540402835291602001916103e3565b820191906000526020600020905b8154815290600101906020018083116103c657829003601f168201915b505050505081526020016006820180546103fc906120d1565b80601f0160208091040260200160405190810160405280929190818152602001828054610428906120d1565b80156104755780601f1061044a57610100808354040283529160200191610475565b820191906000526020600020905b81548152906001019060200180831161045857829003601f168201915b50505091909252505050815260088201546001600160a01b03166020808301919091526040805160e08101825260098501805463ffffffff168252600a86015493820193909352600b85015481830152600c8501546060820152600d8501805492909401939092916080840191906104ec906120d1565b80601f0160208091040260200160405190810160405280929190818152602001828054610518906120d1565b80156105655780601f1061053a57610100808354040283529160200191610565565b820191906000526020600020905b81548152906001019060200180831161054857829003601f168201915b5050505050815260200160058201805461057e906120d1565b80601f01602080910402602001604051908101604052809291908181526020018280546105aa906120d1565b80156105f75780601f106105cc576101008083540402835291602001916105f7565b820191906000526020600020905b8154815290600101906020018083116105da57829003601f168201915b50505050508152602001600682018054610610906120d1565b80601f016020809104026020016040519081016040528092919081815260200182805461063c906120d1565b80156106895780601f1061065e57610100808354040283529160200191610689565b820191906000526020600020905b81548152906001019060200180831161066c57829003601f168201915b5050509190925250505081526010919091015460209091015260408101519091506001600160a01b03166106df578060600151604051639af5461d60e01b81526004016106d69190611d49565b60405180910390fd5b6000828152600160208190526040822080546001600160a01b0319168155908101805463ffffffff19168155600282018390556003820183905560048201839055909190816107316005850182611ba3565b61073f600583016000611ba3565b61074d600683016000611ba3565b50506008820180546001600160a01b031916905560098201805463ffffffff191681556000600a8401819055600b8401819055600c8401819055610794600d850182611ba3565b6107a2600583016000611ba3565b6107b0600683016000611ba3565b5050601082016000905550506107f48160400151826060015183608001517f0000000000000000000000000000000000000000000000000000000000000000611980565b60408082015181518481526001600160a01b0390911660208201527f5e9f0820fcfb53b644becb775b651bae68c337106f21433e526551d1e02c1c0e91015b60405180910390a1506108466001600055565b50565b610851611956565b3330146108725760405162a19dbf60e81b81523360048201526024016106d6565b61087f8282600032611980565b6108896001600055565b5050565b610895611956565b6000818152600160208181526040808420815160a08101835281546001600160a01b03168152825160e081018452948201805463ffffffff16865260028301548686015260038301549386019390935260048201546060860152600582018054919592948601939160808401919061090c906120d1565b80601f0160208091040260200160405190810160405280929190818152602001828054610938906120d1565b80156109855780601f1061095a57610100808354040283529160200191610985565b820191906000526020600020905b81548152906001019060200180831161096857829003601f168201915b5050505050815260200160058201805461099e906120d1565b80601f01602080910402602001604051908101604052809291908181526020018280546109ca906120d1565b8015610a175780601f106109ec57610100808354040283529160200191610a17565b820191906000526020600020905b8154815290600101906020018083116109fa57829003601f168201915b50505050508152602001600682018054610a30906120d1565b80601f0160208091040260200160405190810160405280929190818152602001828054610a5c906120d1565b8015610aa95780601f10610a7e57610100808354040283529160200191610aa9565b820191906000526020600020905b815481529060010190602001808311610a8c57829003601f168201915b50505091909252505050815260088201546001600160a01b03166020808301919091526040805160e08101825260098501805463ffffffff168252600a86015493820193909352600b85015481830152600c8501546060820152600d850180549290940193909291608084019190610b20906120d1565b80601f0160208091040260200160405190810160405280929190818152602001828054610b4c906120d1565b8015610b995780601f10610b6e57610100808354040283529160200191610b99565b820191906000526020600020905b815481529060010190602001808311610b7c57829003601f168201915b50505050508152602001600582018054610bb2906120d1565b80601f0160208091040260200160405190810160405280929190818152602001828054610bde906120d1565b8015610c2b5780601f10610c0057610100808354040283529160200191610c2b565b820191906000526020600020905b815481529060010190602001808311610c0e57829003601f168201915b50505050508152602001600682018054610c44906120d1565b80601f0160208091040260200160405190810160405280929190818152602001828054610c70906120d1565b8015610cbd5780601f10610c9257610100808354040283529160200191610cbd565b820191906000526020600020905b815481529060010190602001808311610ca057829003601f168201915b5050509190925250505081526010919091015460209091015280519091506001600160a01b0316610d07578060200151604051639af5461d60e01b81526004016106d69190611d49565b6000828152600160208190526040822080546001600160a01b0319168155908101805463ffffffff1916815560028201839055600382018390556004820183905590919081610d596005850182611ba3565b610d67600583016000611ba3565b610d75600683016000611ba3565b50506008820180546001600160a01b031916905560098201805463ffffffff191681556000600a8401819055600b8401819055600c8401819055610dbc600d850182611ba3565b610dca600583016000611ba3565b610dd8600683016000611ba3565b505060108201600090555050610dfc81600001518260200151836080015132611980565b8051604080518481526001600160a01b0390921660208301527f89aa520f505c5aa04ca7d9e62b09f7a69cd3a6d3a6468930e54edf220ec76f059101610833565b6001602081815260009283526040928390208054845160e081018652938201805463ffffffff168552600283015493850193909352600382015494840194909452600481015460608401526005810180546001600160a01b039095169491939291608084019190610ead906120d1565b80601f0160208091040260200160405190810160405280929190818152602001828054610ed9906120d1565b8015610f265780601f10610efb57610100808354040283529160200191610f26565b820191906000526020600020905b815481529060010190602001808311610f0957829003601f168201915b50505050508152602001600582018054610f3f906120d1565b80601f0160208091040260200160405190810160405280929190818152602001828054610f6b906120d1565b8015610fb85780601f10610f8d57610100808354040283529160200191610fb8565b820191906000526020600020905b815481529060010190602001808311610f9b57829003601f168201915b50505050508152602001600682018054610fd1906120d1565b80601f0160208091040260200160405190810160405280929190818152602001828054610ffd906120d1565b801561104a5780601f1061101f5761010080835404028352916020019161104a565b820191906000526020600020905b81548152906001019060200180831161102d57829003601f168201915b5050509190925250505060088201546040805160e08101825260098501805463ffffffff168252600a8601546020830152600b86015492820192909252600c8501546060820152600d8501805494956001600160a01b03909416949192916080840191906110b7906120d1565b80601f01602080910402602001604051908101604052809291908181526020018280546110e3906120d1565b80156111305780601f1061110557610100808354040283529160200191611130565b820191906000526020600020905b81548152906001019060200180831161111357829003601f168201915b50505050508152602001600582018054611149906120d1565b80601f0160208091040260200160405190810160405280929190818152602001828054611175906120d1565b80156111c25780601f10611197576101008083540402835291602001916111c2565b820191906000526020600020905b8154815290600101906020018083116111a557829003601f168201915b505050505081526020016006820180546111db906120d1565b80601f0160208091040260200160405190810160405280929190818152602001828054611207906120d1565b80156112545780601f1061122957610100808354040283529160200191611254565b820191906000526020600020905b81548152906001019060200180831161123757829003601f168201915b5050509190925250505060109091015485565b336001600160a01b037f000000000000000000000000000000000000000000000000000000000000000016146112b2576040516391ac5e4f60e01b81523360048201526024016106d6565b7f00000000000000000000000000000000000000000000000000000000000000006001600160a01b0316876001600160a01b03161415801561132657507f00000000000000000000000000000000000000000000000000000000000000006001600160a01b0316876001600160a01b031614155b1561134f5760405163012518af60e01b81526001600160a01b03881660048201526024016106d6565b60007f00000000000000000000000000000000000000000000000000000000000000006001600160a01b0316886001600160a01b0316146113b0577f00000000000000000000000000000000000000000000000000000000000000006113d2565b7f00000000000000000000000000000000000000000000000000000000000000005b905060006113e08787611ac4565b905060006113ee8888611ae9565b905060006113fc8989611b02565b9050600061140a8a8a611b12565b9050611414611b5d565b63ffffffff851681526020810183905260408101849052611433611b5d565b604051630837ef0b60e01b81523090630837ef0b9061145690869060040161210b565b600060405180830381865afa92505050801561149457506040513d6000823e601f3d908101601f19168201604052611491919081019061216e565b60015b6116a0576040518060a0016040528060006001600160a01b031681526020018281526020018f6001600160a01b0316815260200183815260200134815250600160008f815260200190815260200160002060008201518160000160006101000a8154816001600160a01b0302191690836001600160a01b0316021790555060208201518160010160008201518160000160006101000a81548163ffffffff021916908363ffffffff160217905550602082015181600101556040820151816002015560608201518160030155608082015181600401908161157591906122a2565b5060a0820151600582019061158a90826122a2565b5060c0820151600682019061159f90826122a2565b5050506040828101516008830180546001600160a01b0319166001600160a01b03909216919091179055606080840151805160098501805463ffffffff191663ffffffff9092169190911781556020820151600a86015592810151600b85015590810151600c8401556080810151909190600d84019061161f90826122a2565b5060a0820151600582019061163490826122a2565b5060c0820151600682019061164990826122a2565b505050608082015181601001559050507fbc772e673f79f215a678a2c670fb005499e971d3b0a9b9c26b12e4bdce15d6c38d888560405161168c93929190612361565b60405180910390a15050505050505061194d565b6040810186905260006060820152905060405163749075ff60e01b8152309063749075ff9034906116d7908b90869060040161238b565b6000604051808303818588803b1580156116f057600080fd5b505af193505050508015611702575060015b611904576040518060a00160405280886001600160a01b031681526020018281526020018f6001600160a01b0316815260200183815260200134815250600160008f815260200190815260200160002060008201518160000160006101000a8154816001600160a01b0302191690836001600160a01b0316021790555060208201518160010160008201518160000160006101000a81548163ffffffff021916908363ffffffff16021790555060208201518160010155604082015181600201556060820151816003015560808201518160040190816117e291906122a2565b5060a082015160058201906117f790826122a2565b5060c0820151600682019061180c90826122a2565b5050506040828101516008830180546001600160a01b0319166001600160a01b03909216919091179055606080840151805160098501805463ffffffff191663ffffffff9092169190911781556020820151600a86015592810151600b85015590810151600c8401556080810151909190600d84019061188c90826122a2565b5060a082015160058201906118a190826122a2565b5060c082015160068201906118b690826122a2565b50505060809190910151601090910155604080518e81526001600160a01b03891660208201527ff541998e7eedd92b9bdf229af34c5948d21a53ea0d6096e0a7129534dbc679e5910161168c565b604080518e81526001600160a01b03891660208201527f694312179c29178a99acf06670f5965230682449c6800c13d8a41928b1494ba3910160405180910390a1505050505050505b50505050505050565b60026000540361197957604051633ee5aeb560e01b815260040160405180910390fd5b6002600055565b600061198c83346123af565b90506000856001600160a01b0316633b6f743b8660006040518363ffffffff1660e01b81526004016119bf9291906123d0565b6040805180830381865afa1580156119db573d6000803e3d6000fd5b505050506040513d601f19601f820116820180604052508101906119ff9190612442565b9050600081600001518660400151611a1791906123af565b905080831015611a4457604051631c102d6360e21b815260048101829052602481018490526044016106d6565b60405163c7c7f5b360e01b81526001600160a01b0388169063c7c7f5b3908390611a76908a9087908a9060040161245e565b60c06040518083038185885af1158015611a94573d6000803e3d6000fd5b50505050506040513d601f19601f82011682018060405250810190611ab9919061249d565b505050505050505050565b6000611ad4600c60088486612530565b611add9161255a565b60e01c90505b92915050565b6000611af9602c600c8486612530565b6102529161258a565b6000611af9604c602c8486612530565b6060611b2182604c8186612530565b8080601f016020809104026020016040519081016040528093929190818152602001838380828437600092019190915250929695505050505050565b6040518060e00160405280600063ffffffff1681526020016000801916815260200160008152602001600081526020016060815260200160608152602001606081525090565b508054611baf906120d1565b6000825580601f10611bbf575050565b601f01602090049060005260206000209081019061084691905b80821115611bed5760008155600101611bd9565b5090565b60008083601f840112611c0357600080fd5b5081356001600160401b03811115611c1a57600080fd5b602083019150836020828501011115611c3257600080fd5b9250929050565b60008060208385031215611c4c57600080fd5b82356001600160401b03811115611c6257600080fd5b611c6e85828601611bf1565b90969095509350505050565b60005b83811015611c95578181015183820152602001611c7d565b50506000910152565b60008151808452611cb6816020860160208601611c7a565b601f01601f19169290920160200192915050565b63ffffffff81511682526020810151602083015260408101516040830152606081015160608301526000608082015160e06080850152611d0d60e0850182611c9e565b905060a083015184820360a0860152611d268282611c9e565b91505060c083015184820360c0860152611d408282611c9e565b95945050505050565b6020815260006102526020830184611cca565b600060208284031215611d6e57600080fd5b5035919050565b80356001600160a01b0381168114611d8c57600080fd5b919050565b634e487b7160e01b600052604160045260246000fd5b60405160e081016001600160401b0381118282101715611dc957611dc9611d91565b60405290565b604051601f8201601f191681016001600160401b0381118282101715611df757611df7611d91565b604052919050565b63ffffffff8116811461084657600080fd5b8035611d8c81611dff565b60006001600160401b03821115611e3557611e35611d91565b50601f01601f191660200190565b600082601f830112611e5457600080fd5b8135611e67611e6282611e1c565b611dcf565b818152846020838601011115611e7c57600080fd5b816020850160208301376000918101602001919091529392505050565b600060e08284031215611eab57600080fd5b611eb3611da7565b9050611ebe82611e11565b815260208201356020820152604082013560408201526060820135606082015260808201356001600160401b0380821115611ef857600080fd5b611f0485838601611e43565b608084015260a0840135915080821115611f1d57600080fd5b611f2985838601611e43565b60a084015260c0840135915080821115611f4257600080fd5b50611f4f84828501611e43565b60c08301525092915050565b60008060408385031215611f6e57600080fd5b611f7783611d75565b915060208301356001600160401b03811115611f9257600080fd5b611f9e85828601611e99565b9150509250929050565b600060018060a01b03808816835260a06020840152611fca60a0840188611cca565b81871660408501528381036060850152611fe48187611cca565b925050508260808301529695505050505050565b600080600080600080600060a0888a03121561201357600080fd5b61201c88611d75565b96506020880135955060408801356001600160401b038082111561203f57600080fd5b61204b8b838c01611bf1565b909750955085915061205f60608b01611d75565b945060808a013591508082111561207557600080fd5b506120828a828b01611bf1565b989b979a50959850939692959293505050565b6000602082840312156120a757600080fd5b81356001600160401b038111156120bd57600080fd5b6120c984828501611e99565b949350505050565b600181811c908216806120e557607f821691505b60208210810361210557634e487b7160e01b600052602260045260246000fd5b50919050565b6020815260006102526020830184611c9e565b8051611d8c81611dff565b600082601f83011261213a57600080fd5b8151612148611e6282611e1c565b81815284602083860101111561215d57600080fd5b6120c9826020830160208701611c7a565b60006020828403121561218057600080fd5b81516001600160401b038082111561219757600080fd5b9083019060e082860312156121ab57600080fd5b6121b3611da7565b6121bc8361211e565b81526020830151602082015260408301516040820152606083015160608201526080830151828111156121ee57600080fd5b6121fa87828601612129565b60808301525060a08301518281111561221257600080fd5b61221e87828601612129565b60a08301525060c08301518281111561223657600080fd5b61224287828601612129565b60c08301525095945050505050565b601f82111561229d576000816000526020600020601f850160051c8101602086101561227a5750805b601f850160051c820191505b8181101561229957828155600101612286565b5050505b505050565b81516001600160401b038111156122bb576122bb611d91565b6122cf816122c984546120d1565b84612251565b602080601f83116001811461230457600084156122ec5750858301515b600019600386901b1c1916600185901b178555612299565b600085815260208120601f198616915b8281101561233357888601518255948401946001909101908401612314565b50858210156123515787850151600019600388901b60f8161c191681555b5050505050600190811b01905550565b8381526001600160a01b0383166020820152606060408201819052600090611d4090830184611c9e565b6001600160a01b03831681526040602082018190526000906120c990830184611cca565b80820180821115611ae357634e487b7160e01b600052601160045260246000fd5b6040815260006123e36040830185611cca565b905082151560208301529392505050565b60006040828403121561240657600080fd5b604051604081018181106001600160401b038211171561242857612428611d91565b604052825181526020928301519281019290925250919050565b60006040828403121561245457600080fd5b61025283836123f4565b6080815260006124716080830186611cca565b8451602084810191909152909401516040830152506001600160a01b0391909116606090910152919050565b60008082840360c08112156124b157600080fd5b60808112156124bf57600080fd5b50604051606081016001600160401b0382821081831117156124e3576124e3611d91565b816040528551835260208601519150808216821461250057600080fd5b50602082015261251385604086016123f4565b6040820152915061252784608085016123f4565b90509250929050565b6000808585111561254057600080fd5b8386111561254d57600080fd5b5050820193919092039150565b6001600160e01b031981358181169160048510156125825780818660040360031b1b83161692505b505092915050565b80356020831015611ae357600019602084900360031b1b169291505056fea264697066735822122014e8878975901e0e3b6f814abcbb6d49107744a6cadbb8a4e48e159872db966864736f6c63430008160033",
  "devdoc": {
    "errors": {
      "ReentrancyGuardReentrantCall()": [
        {
          "details": "Unauthorized reentrant call."
        }
      ]
    },
    "kind": "dev",
    "methods": {},
    "stateVariables": {
      "ENDPOINT": {
        "details": "LayerZero endpoint for this OApp (from NativeOFTAdapter)."
      },
      "EXECUTOR": {
        "details": "Address that receives cached msg.value refunds when calling refund()."
      },
      "NATIVE_OFT": {
        "details": "NativeOFTAdapter address (native mesh)."
      },
      "STARGATE_POOL": {
        "details": "StargatePoolNative address (IOFT-based Stargate pool on this chain)."
      }
    },
    "version": 1
  },
  "userdoc": {
    "kind": "user",
    "methods": {},
    "notice": "Multi-hop composer between:- NativeOFTAdapter (native ETH, e.g. Arbitrum), and- StargatePoolNative (Stargate, used as a routing hub to any dstEid).",
    "version": 1
  },
  "storageLayout": {
    "storage": [
      {
        "astId": 2201,
        "contract": "contracts/NativeStargateComposer.sol:NativeStargateComposer",
        "label": "_status",
        "offset": 0,
        "slot": "0",
        "type": "t_uint256"
      },
      {
        "astId": 2311,
        "contract": "contracts/NativeStargateComposer.sol:NativeStargateComposer",
        "label": "failedMessages",
        "offset": 0,
        "slot": "1",
        "type": "t_mapping(t_bytes32,t_struct(FailedMessage)2893_storage)"
      }
    ],
    "types": {
      "t_address": {
        "encoding": "inplace",
        "label": "address",
        "numberOfBytes": "20"
      },
      "t_bytes32": {
        "encoding": "inplace",
        "label": "bytes32",
        "numberOfBytes": "32"
      },
      "t_bytes_storage": {
        "encoding": "bytes",
        "label": "bytes",
        "numberOfBytes": "32"
      },
      "t_mapping(t_bytes32,t_struct(FailedMessage)2893_storage)": {
        "encoding": "mapping",
        "key": "t_bytes32",
        "label": "mapping(bytes32 => struct FailedMessage)",
        "numberOfBytes": "32",
        "value": "t_struct(FailedMessage)2893_storage"
      },
      "t_struct(FailedMessage)2893_storage": {
        "encoding": "inplace",
        "label": "struct FailedMessage",
        "members": [
          {
            "astId": 2882,
            "contract": "contracts/NativeStargateComposer.sol:NativeStargateComposer",
            "label": "oft",
            "offset": 0,
            "slot": "0",
            "type": "t_address"
          },
          {
            "astId": 2885,
            "contract": "contracts/NativeStargateComposer.sol:NativeStargateComposer",
            "label": "sendParam",
            "offset": 0,
            "slot": "1",
            "type": "t_struct(SendParam)1084_storage"
          },
          {
            "astId": 2887,
            "contract": "contracts/NativeStargateComposer.sol:NativeStargateComposer",
            "label": "refundOFT",
            "offset": 0,
            "slot": "8",
            "type": "t_address"
          },
          {
            "astId": 2890,
            "contract": "contracts/NativeStargateComposer.sol:NativeStargateComposer",
            "label": "refundSendParam",
            "offset": 0,
            "slot": "9",
            "type": "t_struct(SendParam)1084_storage"
          },
          {
            "astId": 2892,
            "contract": "contracts/NativeStargateComposer.sol:NativeStargateComposer",
            "label": "msgValue",
            "offset": 0,
            "slot": "16",
            "type": "t_uint256"
          }
        ],
        "numberOfBytes": "544"
      },
      "t_struct(SendParam)1084_storage": {
        "encoding": "inplace",
        "label": "struct SendParam",
        "members": [
          {
            "astId": 1071,
            "contract": "contracts/NativeStargateComposer.sol:NativeStargateComposer",
            "label": "dstEid",
            "offset": 0,
            "slot": "0",
            "type": "t_uint32"
          },
          {
            "astId": 1073,
            "contract": "contracts/NativeStargateComposer.sol:NativeStargateComposer",
            "label": "to",
            "offset": 0,
            "slot": "1",
            "type": "t_bytes32"
          },
          {
            "astId": 1075,
            "contract": "contracts/NativeStargateComposer.sol:NativeStargateComposer",
            "label": "amountLD",
            "offset": 0,
            "slot": "2",
            "type": "t_uint256"
          },
          {
            "astId": 1077,
            "contract": "contracts/NativeStargateComposer.sol:NativeStargateComposer",
            "label": "minAmountLD",
            "offset": 0,
            "slot": "3",
            "type": "t_uint256"
          },
          {
            "astId": 1079,
            "contract": "contracts/NativeStargateComposer.sol:NativeStargateComposer",
            "label": "extraOptions",
            "offset": 0,
            "slot": "4",
            "type": "t_bytes_storage"
          },
          {
            "astId": 1081,
            "contract": "contracts/NativeStargateComposer.sol:NativeStargateComposer",
            "label": "composeMsg",
            "offset": 0,
            "slot": "5",
            "type": "t_bytes_storage"
          },
          {
            "astId": 1083,
            "contract": "contracts/NativeStargateComposer.sol:NativeStargateComposer",
            "label": "oftCmd",
            "offset": 0,
            "slot": "6",
            "type": "t_bytes_storage"
          }
        ],
        "numberOfBytes": "224"
      },
      "t_uint256": {
        "encoding": "inplace",
        "label": "uint256",
        "numberOfBytes": "32"
      },
      "t_uint32": {
        "encoding": "inplace",
        "label": "uint32",
        "numberOfBytes": "4"
      }
    }
  }
}